:040000000BEF00F012
:100008003F82FACF09F0FBCF0AF0BFED05F03BEFD6
:0200180007F0EF
:10060000002B43574C41503A280041542B43574C40
:100610004150004552524F52002C22004F4B004196
:1006200054002C00000002D0284A292A28C0F6FFD6
:1006300029C0F7FFF86A050EF76403D00800F550EB
:1006400005D0F6CFE9FFF7CFEAFFEF50200AD8B484
:10065000EBD728C0F6FF29C0F7FFF86A050EF7644C
:1006600003D00800F55005D0F6CFE9FFF7CFEAFF39
:10067000EF50090AD8B4D8D7000E2E6E000E2D6E9A
:10068000000E2C6E28C0F6FF29C0F7FFF86A050E91
:10069000F76403D00800F55005D0F6CFE9FFF7CF97
:1006A000EAFFEF502D0AD8A402D02C2A3AD028C055
:1006B000F6FF29C0F7FFF86A050EF76403D00800BB
:1006C000F55005D0F6CFE9FFF7CFEAFFEF502B0A40
:1006D000D8A429D026D02DC017F02EC018F0000EB7
:1006E0001A6E0A0E196E09EC08F028C0F6FF29C030
:1006F000F7FFF86A050EF76403D00800F55005D03F
:10070000F6CFE9FFF7CFEAFFEF502A6E2B6A1750BA
:100710002A2618502B22D00E2A242D6EFF0E2B20B5
:100720002E6E284A292A28C0F6FF29C0F7FFF86A4A
:10073000050EF76403D00800F55005D0F6CFE9FFA9
:10074000F7CFEAFFEF503DEC08F0D8B0C4D72C50FB
:10075000D8B40DD02DC02AF02EC02BF02A1E2B1E8F
:100760002A4A2B2A2AC028F02BC029F012002DC0BB
:1007700028F02EC029F0120024502510D8A404D04F
:100780003CC024F03DC025F024502510D8A405D04D
:10079000000E246E000E256E120024C01DF025C030
:1007A0001EF026C01FF027C020F087EC06F01D5079
:1007B00024261E50252224C0F6FF25C0F7FFF86A24
:1007C000050EF76403D00800F55005D0F6CFE9FF19
:1007D000F7CFEAFFEF500009D8A409D0000E3C6E15
:1007E000000E3D6E3CC024F03DC025F0120024C038
:1007F0001DF025C01EF026C01FF027C020F0C6EC5B
:1008000006F01D5024243C6E1E5025203D6E3CC039
:10081000F6FF3DC0F7FFF86A050EF76403D0080045
:10082000F55005D0F6CFE9FFF7CFEAFFEF5000090A
:10083000D8B415D03CC0F6FF3DC0F7FFF86A050EEE
:10084000F76404D0000EF56E0C0006D0F6CFE9FF79
:10085000F7CFEAFF000EEF6E3C4A3D2A04D0000EAF
:100860003C6E000E3D6E24C024F025C025F0120021
:100870002FC026F030C027F0010E286E060E296E1C
:1008800071EC05F026C031F027C032F03150321043
:10089000D8B41200080E3126000E32223E50220D2E
:1008A000D20EF324D96E000EF420DA6E31C024F09B
:1008B00032C025F0220E266E060E276EBCEC03F029
:1008C00024C028F025C029F013EC03F02850DF6E77
:1008D0003E50220D010EF326000EF422D20EF32418
:1008E000286E000EF420296E000E246E000E256E78
:1008F000190E266E060E276EBCEC03F024C02AF0FB
:1009000025C02BF0ADEC07F03E50220D210EF32652
:10091000000EF422D20EF324D96E000EF420DA6E0B
:10092000000E246E000E256E220E266E060E276E19
:10093000BCEC03F024C028F025C029F013EC03F030
:100940002850DF6E3E2A120020EE03F01750D92601
:100950001850DA2210EE02F01750E1261850E22269
:10096000DE50E618D8A402D0D890120020EE03F092
:100970001750D9261850DA22DF501B6E1B50010D7C
:1009800017C0D9FF18C0DAFFDECF1CF0DDCF1DF095
:10099000F3501C24D96EF4501D20DA6E19C0E1FF0B
:1009A0001AC0E2FFDFCFE7FF20EE03F01750D92691
:1009B0001850DA22DF501B6E1B50010D17C0D9FFF3
:1009C00018C0DAFFDECF1CF0DDCF1DF0F3501C2481
:1009D000D96EF4501D20DA6E000EDF6E20EE03F0AB
:1009E0001750D9261850DA22DF501B6E1B281E6EB6
:1009F00020EE04F01750D9261850DA22DE501E5C83
:100A0000D8A002D0000E1E6E20EE03F01750D9269B
:100A10001850DA221EC0DFFFD880120055D01DC04A
:100A2000F6FF1EC0F7FFF86A050EF76403D0080052
:100A3000F55005D0F6CFE9FFF7CFEAFFEF500009F8
:100A4000D8B41AD01FC0F6FF20C0F7FF0800F5CFBA
:100A500023F01DC0F6FF1EC0F7FFF86A050EF7640D
:100A600003D00800F55005D0F6CFE9FFF7CFEAFF35
:100A7000EF502318D8B424D01FC0F6FF20C0F7FFD2
:100A80000800F550236E246A231E241E234A242ABC
:100A90001DC0F6FF1EC0F7FFF86A050EF76403D00D
:100AA0000800F55005D0F6CFE9FFF7CFEAFFEF5089
:100AB000256E255023241D6E000E24201E6E12006C
:100AC0001D4A1E2A1F4A202A2106D8A022062128B4
:100AD000A6E12228D8A4A3D7000E1E6E000E1D6E1C
:100AE000120031D026C01DF027C01EF028C01FF014
:100AF00029C020F028C017F029C018F0CFEC07F06B
:100B000017C021F018C022F00EEC05F01D501E1089
:100B1000D8A405D026C026F027C027F01200010E69
:100B20002624176E000E2720186E28C0F6FF29C055
:100B3000F7FF0800F550196E1A6A05EC07F017C0A8
:100B400026F018C027F026502710D8B413D026C09E
:100B5000F6FF27C0F7FFF86A050EF76403D0080018
:100B6000F55005D0F6CFE9FFF7CFEAFFEF500009C7
:100B7000D8A4B8D7000E266E000E276E120006000D
:100B8000E9CF0BF0EACF0CF0E1CF0DF0E2CF0EF0A1
:100B9000D9CF0FF0DACF10F0F3CF11F0F4CF12F07D
:100BA000F6CF13F0F7CF14F0F8CF15F0F5CF16F01D
:100BB0009EAA0CD0ABA202D0AB98AB88ABA403D05A
:100BC000AECFAEFF03D0AE508AEC08F016C0F5FFF2
:100BD00015C0F8FF14C0F7FF13C0F6FF12C0F4FFF2
:100BE00011C0F3FF10C0DAFF0FC0D9FF0EC0E2FF43
:100BF0000DC0E1FF0CC0EAFF0BC0E9FF0AC0FBFF1C
:100C000009C0FAFF3F92110020EE02F00150D926F0
:100C10000250DA22DF50046E0428076E20EE04F042
:100C20000150D9260250DA22DE50075CD8A002D04B
:100C3000000E076E20EE03F00150D9260250DA2292
:100C40000750DE18D8B4120020EE02F00150D92669
:100C50000250DA22DF50046E0450010D01C0D9FFAA
:100C600002C0DAFFDECF05F0DDCF06F0F350052439
:100C7000D96EF4500620DA6E03C0DFFF20EE02F0DA
:100C80000150D9260250DA2207C0DFFF120033C01C
:100C900018F034C019F0EEEC07F0800E206E000E54
:100CA000216E89EC07F0800E176E000E186E1C0E78
:100CB000196E060E1A6E65EC07F017501810D8A4BE
:100CC00002D0D8801200800E176E000E186E130E20
:100CD000196E060E1A6E65EC07F017501810D8A49E
:100CE00002D0D890120035503610D8B4D6D7800E26
:100CF0002F6E000E306E01D8D0D70500FA6E355039
:100D0000FD6E3650FE6EF850FF6EFA501200000E67
:100D1000236E000E226E04D01D4A1E2A224A232A68
:100D20001DC0F6FF1EC0F7FFF86A050EF76403D07A
:100D30000800F55005D0F6CFE9FFF7CFEAFFEF50F6
:100D40000009D8B41ED01FC017F020C018F01DC075
:100D5000F6FF1EC0F7FFF86A050EF76403D008001F
:100D6000F55005D0F6CFE9FFF7CFEAFFEF50216E3F
:100D70002150196E1A6A05EC07F017501810D8A404
:100D8000CBD722C01DF023C01EF01200000E236E30
:100D9000000E226E04D01D4A1E2A224A232A1DC09C
:100DA000F6FF1EC0F7FFF86A050EF76403D00800CF
:100DB000F55005D0F6CFE9FFF7CFEAFFEF50000975
:100DC000D8B41ED01FC017F020C018F01DC0F6FF09
:100DD0001EC0F7FFF86A050EF76403D00800F5504F
:100DE00005D0F6CFE9FFF7CFEAFFEF50216E215093
:100DF000196E1A6A05EC07F017501810D8B4CBD743
:100E000022C01DF023C01EF0120017C0F6FF18C04C
:100E1000F7FFF86A050EF76403D00800F55005D017
:100E2000F6CFE9FFF7CFEAFFEF501918D8A405D0A5
:100E300017C017F018C018F0120017501B6E18508A
:100E40001C6E174A182A1BC0F6FF1CC0F7FFF86A71
:100E5000050EF76403D00800F55005D0F6CFE9FF82
:100E6000F7CFEAFFEF500009D8A4CFD7000E176ED6
:100E7000000E186E120000EED2F011EE54F0EE6A81
:100E8000E550E150FCE1E250FAE100EEB2F0200E54
:100E9000EE6AE806FDE13E6A3D6A3C6A340EF66E93
:100EA000110EF76E000EF86E00EE37F010EE05F042
:100EB0000900F5CFEEFFE550E150FAE13F903F9297
:100EC000000EF86E00017FEF08F004D0174A182AD0
:100ED000194A1A2A17C0D9FF18C0DAFFDF501B6E53
:100EE00019C0F6FF1AC0F7FF0800F55000081B24D0
:100EF0001C6E1C50D8A407D017C0D9FF18C0DAFF49
:100F0000DF50D8A4E3D71C50176E186A17BE180616
:100F10001200000E226E4CEC08F0236E0A0E23180D
:100F2000D8B412000D0E2318D8A40BD02250010DF6
:100F3000F3502024D96EF4502120DA6E000EDF6EBB
:100F40000AD02250010DF3502024D96EF4502120F4
:100F5000DA6E23C0DFFF222ADED728C02CF029C09A
:100F60002DF004D02C4A2D2A2A4A2B2A2AC0F6FF1B
:100F70002BC0F7FFF86A2CC0D9FF2DC0DAFF050E91
:100F8000F76403D00800F55005D0F6CFE9FFF7CF9E
:100F9000EAFFEF50DF6EDF50D8B41200E3D717C07E
:100FA0001BF018C01CF002D01B4A1C2A1BC0F6FF05
:100FB0001CC0F7FF0800F5500009D8A4F5D717C0EA
:100FC00019F018C01AF0191E1A1E194A1A2A1B50B5
:100FD0001924176E1C501A20186E12000AD018C05F
:100FE000F6FF19C0F7FF0800F55094EC08F0184A16
:100FF000192A18C0F6FF19C0F7FF0800F5500009BC
:10100000D8A4EDD70D0E94EC08F00A0E94EC08F07D
:10101000120017501902F3CF1BF0F4CF1CF0175039
:101020001A02F3501C2618501902F3501C261BC03C
:1010300017F01CC018F01200948E948C2A0EAF6E1C
:10104000AC98AC84B886AB8EAB88AB9A9D989D8AE1
:10105000AC9CAB9CAC9AAC8A12001706D8A01806C0
:10106000070E196E7D0EE82EFED7192EFCD700F064
:1010700017501810D8B41200F0D7196E000E186E61
:101080003A0E196005D02F0E196402D0010E186EA9
:1010900018C017F017301200370E176E000E186EBA
:1010A0001F0E196E000E1A6EA4EC04F0D8A0F4D72F
:1010B0001F501200000E3E6E0A0E336E060E346E86
:1010C000700E356E080E366E47EC06F012009290E8
:1010D000F28EF28C030E186EE80E176E2DEC08F0EF
:1010E0001CEC08F012001F0E336E060E346E000E5C
:1010F000356E000E366E47EC06F0D880120067ECB5
:1011000008F0899073EC08F0D8A0FCD75AEC08F0EE
:101110008980FFD7086E370E016E000E026E08C080
:1011200003F004EC06F01200176E9EA8FED717C05D
:0A113000ADFF1200B2000000200025
:020000040020DA
:08000000FFFFFFFFFFFFFFFF00
:020000040030CA
:0E000000FF021F1EFF8381FF0FC00FE00F40A5
:00000001FF
