:020000040800F2
:10000000281300204D040008A90400087F0A0008F6
:10001000A9040008A9040008A904000800000000C1
:10002000000000000000000000000000A90400081B
:10003000A904000800000000A9040008A9040008A1
:10004000A9040008A9040008A9040008A9040008DC
:10005000A9040008A9040008A9040008A9040008CC
:10006000A9040008A9040008A9040008A9040008BC
:10007000A9040008A9040008A9040008A9040008AC
:10008000A9040008A9040008A9040008A90400089C
:10009000A9040008A9040008A9040008A90400088C
:1000A000A9040008A9040008A9040008A90400087C
:1000B000A9040008A9040008A9040008A90400086C
:1000C000A9040008A9040008A9040008A90400085C
:1000D000A9040008A9040008A9040008A90400084C
:1000E000A9040008A9040008A9040008A90400083C
:1000F000A9040008A9040008A9040008A90400082C
:10010000A9040008A9040008A9040008A90400081B
:10011000A9040008A9040008A9040008A90400080B
:10012000A9040008A9040008A9040008A9040008FB
:10013000A9040008A9040008A9040008A9040008EB
:10014000A9040008A9040008A9040008A9040008DB
:10015000A9040008A9040008A9040008A9040008CB
:10016000A9040008A9040008A9040008A9040008BB
:10017000A9040008A9040008A9040008A9040008AB
:10018000A9040008A904000880B582B000AF786017
:10019000154B1B785A1CD1B2134A11701A467B6852
:1001A000D9B2124B9954104B1B781A460F4B0021B1
:1001B00099540D4B1B7801330F2B05D87B680A2B04
:1001C00002D07B68002B0CD1074B00221A70074B22
:1001D00004201946002200F049FC0346002B00D001
:1001E00000BF0837BD4680BD200000201000002061
:1001F00080B58AB000AF7860396000237B6200234D
:100200003B620023FB610023BB617B681B8A9BB2BE
:100210007B627B6A23F440537B623B68DB881A462F
:100220007B6A13437B627B6A9AB27B681A827B6823
:100230009B899BB27B627B6A23F4B05323F00C034F
:100240007B623B689A883B681B8913439AB23B6880
:100250005B8913439BB21A467B6A13437B627B6ABA
:100260009AB27B689A817B689B8A9BB27B627B6A2D
:1002700023F440737B623B689B891A467B6A134375
:100280007B627B6A9AB27B689A8207F10803184600
:1002900000F012FA7B68314A934203D07B68304AFF
:1002A000934202D17B693B6201E03B693B627B6820
:1002B0009B899BB29BB21BB2002B0CDA3A6A1346A5
:1002C0009B0013449A001A443B681B685B00B2FB16
:1002D000F3F3FB610BE03A6A13469B0013449A0068
:1002E0001A443B681B689B00B2FBF3F3FB61FB699C
:1002F0001C4AA2FB03235B091B017B627B6A1B096F
:10030000642202FB03F3FA69D31ABB617B689B8901
:100310009BB29BB21BB2002B0CDABB69DB00323301
:10032000104AA2FB03235B0903F007037A6A134315
:100330007B620BE0BB691B0132330A4AA2FB032339
:100340005B0903F00F037A6A13437B627B6A9AB2FC
:100350007B681A812837BD4680BD00BF0010014070
:10036000001401401F85EB5180B483B000AF78606A
:100370000B46FB70FB78002B08D07B689B899BB2F7
:1003800043F400539AB27B689A8107E07B689B89AB
:100390009BB223F400539AB27B689A810C37BD4616
:1003A0005DF8047B704700BF80B483B000AF786015
:1003B0000B467B807B88C3F308039AB27B689A80E4
:1003C0000C37BD465DF8047B704700BF80B483B036
:1003D00000AF78600B467B8013467B707B78002BE8
:1003E00008D07B689B8A9AB27B8813439AB27B6859
:1003F0009A8209E07B689B8A9AB27B88DB439BB236
:1004000013409AB27B689A820C37BD465DF8047B34
:10041000704700BF80B485B000AF78600B467B802A
:100420000023FB737B681B889AB27B8813409BB2C6
:10043000002B02D00123FB7301E00023FB73FB7B45
:1004400018461437BD465DF8047B704780B582B00E
:1004500000AF104B7B60104B3B6007E03B681A1D00
:100460003A607A68111D796012681A603B680B4A1D
:100470009342F3D30A480B494FF000028842B8BFB9
:1004800040F8042BFADB00F005FB00F011F8083708
:10049000BD4680BDD01800080000002010000020DC
:1004A00010000020240B002080B400AFFEE700BF46
:1004B00080B590B000AF00F043F800F085F800F090
:1004C000A9F8174B00221A6004E0154B1B68013392
:1004D000134A1360124B1B68124A9342F5DD00BFAA
:1004E00000F0D0FC034683F00103DBB2002BF7D110
:1004F0000D480E4900F0D2FC002000F00BFD0C4826
:100500000C4900F041FD0C4800F06EFD0B48022143
:1005100000F052FA3B46184600F09AFDFAE700BF99
:10052000240000207F969800B4170008C017000828
:10053000CC170008DC170008E0170008000802408C
:1005400080B500AF0420012100F060F91A4B0222AF
:100550001A60194B01221A71174B03225A71164B5C
:1005600000229A71144B0022DA711448124900F0EB
:1005700095F90220012100F049F9114BC0221A60BF
:100580000F4B02221A710E4B03225A710C4B0022A0
:100590009A710B4B0122DA710A48094900F07EF981
:1005A00008480621072200F019FA06480721072209
:1005B00000F014FA80BD00BFC40200200008024011
:1005C000CC0200200004024080B500AF10200121C1
:1005D00000F03AF90D4B4FF4E1321A600B4B002258
:1005E0009A800A4B0022DA80084B00221A81074BBE
:1005F00000229A81054B0C225A8105480349FFF7D6
:10060000F7FD03480121FFF7AFFE80BDD4020020B3
:100610000010014080B500AF4FF48000012100F0D0
:10062000F5F8204800F0DCFA1F4B4FF000621A602A
:100630001D4B0022DA601D4A1B4B9A601A4B4FF487
:1006400000621A61184B1A4A5A60174B00225A610D
:10065000154B4FF480629A61134B0022DA61124B02
:1006600000221A62104B4FF480725A620E4B4FF404
:1006700000329A620C4B0022DA620B4B00225A6362
:10068000094B00229A630748074900F07BFB0948A1
:1006900040210122FFF79AFE0248012100F0C8FB29
:1006A00080BD00BF40640240E4020020240300201B
:1006B000041001400010014080B489B000AF7860A0
:1006C0000023BB6100237B610023FB6102233B61AC
:1006D0000023FB600223BB60484B9B6803F00C03C4
:1006E000BB61BB69042B07D0082B09D0002B3FD17D
:1006F0007B68434A1A603FE07B68424A1A603BE0ED
:100700003E4B5B6803F480039B0DFB603B4B5B68D7
:1007100003F03F03BB60FB68002B0DD0394ABB6878
:10072000B2FBF3F2354B596847F6C0730B409B0997
:1007300003FB02F3FB610CE0314ABB68B2FBF3F24E
:100740002E4B596847F6C0730B409B0903FB02F31D
:10075000FB612A4B5B6803F440331B0C01335B00E5
:100760003B61FA693B69B2FBF3F27B681A6003E014
:100770007B68234A1A6000BF204B9B6803F0F0039C
:10078000BB61BB691B09BB611F4ABB6913441B7872
:10079000DBB27B617B681A687B69DA407B685A60F0
:1007A000164B9B6803F4E053BB61BB699B0ABB61BA
:1007B000154ABB6913441B78DBB27B617B685A68BE
:1007C0007B69DA407B689A600C4B9B6803F460435A
:1007D000BB61BB695B0BBB610B4ABB6913441B78F4
:1007E000DBB27B617B685A687B69DA407B68DA60E0
:1007F0002437BD465DF8047B704700BF00380240D7
:100800000024F40000127A000000002080B483B0BD
:1008100000AF78600B46FB70FB78002B06D00949CF
:10082000084B1A6B7B6813430B6306E00549054BC5
:100830001A6B7B68DB4313400B630C37BD465DF8D6
:10084000047B70470038024080B483B000AF78600A
:100850000B46FB70FB78002B06D00949084B5A6CFD
:100860007B6813434B6406E00549054B5A6C7B6873
:10087000DB4313404B640C37BD465DF8047B704787
:100880000038024080B582B000AF0346FB71FB79AF
:100890001846FFF779FC0837BD4680BD80B487B0A5
:1008A00000AF7860396000237B6100233B61002347
:1008B000FB6000237B6176E07B69012202FA03F38F
:1008C0003B613B681A683B691340FB60FA683B690F
:1008D0009A4265D17B681A687B695B0019460323DD
:1008E0008B40DB431A407B681A607B681A683B6860
:1008F0001B7919467B695B0001FA03F31A437B6895
:100900001A603B681B79012B03D03B681B79022BD3
:100910002ED17B689A687B695B00194603238B4064
:10092000DB431A407B689A607B689A683B685B7916
:1009300019467B695B0001FA03F31A437B689A60EE
:100940007B685A687B699BB2194601238B40DB4365
:100950001A407B685A607B685B683A6892791146F6
:100960007A6992B201FA02F292B21A437B685A6033
:100970007B68DA687B699BB25B00032101FA03F3B1
:10098000DB431A407B68DA607B68DA683B68DB79B6
:1009900019467B695B0001FA03F31A437B68DA604E
:1009A0007B6901337B617B690F2B85D91C37BD4681
:1009B0005DF8047B704700BF80B483B000AF7860FF
:1009C0000B467B807B685A697B885A407B685A61FA
:1009D0000C37BD465DF8047B704700BF80B485B01E
:1009E00000AF78600B467B8013467B700023FB6072
:1009F0000023BB607B787A8802F007029200934064
:100A0000FB607B88DB089BB218467B88DB089BB2C7
:100A10001A467B68083253F822207B8803F00703CC
:100A20009B0019460F238B40DB4302EA03017B68DE
:100A300000F1080243F822107B88DB089BB21A46BB
:100A40007B68083253F82220FB681343BB607B8825
:100A5000DB089BB21A467B680832B96843F822105B
:100A60001437BD465DF8047B704700BFABBE01E0A4
:100A700000207047002A00D01060012070470698BF
:100A80000188034A914202D1043006907047FEE784
:100A9000ABBE000080B500AF114A114B1B6843F09C
:100AA000010313600E4B00229A600D4A0C4B1B6829
:100AB00023F0847323F480331360094B094A5A608E
:100AC000074A074B1B6823F480231360044B002262
:100AD000DA6000F00BF8044B4FF000629A6080BDC2
:100AE000003802401030002400ED00E080B483B0F4
:100AF00000AF00237B6000233B60354A344B1B680A
:100B000043F480331360324B1B6803F400333B60C3
:100B10007B6801337B603B68002B03D17B68B3F5B6
:100B2000A06FF0D12A4B1B6803F40033002B02D0D6
:100B300001233B6001E000233B603B68012B42D175
:100B4000234A234B1B6C43F080531364214A214BEF
:100B50001B6843F4804313601D4A1D4B9B689360E0
:100B60001B4A1B4B9B6843F400439360184A184B85
:100B70009B6843F4A0539360154B174A5A60144A7C
:100B8000134B1B6843F08073136000BF104B1B684E
:100B900003F00073002BF9D0104B40F205621A608D
:100BA0000B4A0B4B9B6823F003039360084A084BE6
:100BB0009B6843F00203936000BF054B9B6803F002
:100BC0000C03082BF9D10C37BD465DF8047B704748
:100BD000003802400070004008544007003C0240CA
:100BE00080B483B000AF78607B681B6823F001029B
:100BF0007B681A607B6800221A607B6800225A605A
:100C00007B6800229A607B680022DA607B680022A1
:100C10001A617B6821225A617B68454A934203D15D
:100C2000444B3D229A607EE07B68434A934204D164
:100C3000404B4FF474629A6075E07B683F4A934280
:100C400004D13C4B4FF474129A606CE07B683C4AD0
:100C5000934204D1374B4FF074629A6063E07B6833
:100C6000384A934203D1334B374ADA605BE07B6802
:100C7000364A934203D12F4B354ADA6053E07B6802
:100C8000344A934203D12B4B334ADA604BE07B6802
:100C9000324A934204D1274B4FF03D52DA6042E092
:100CA0007B682F4A934203D12E4B3D229A603AE053
:100CB0007B682D4A934204D12A4B4FF474629A60A8
:100CC00031E07B68294A934204D1264B4FF47412D9
:100CD0009A6028E07B68264A934204D1214B4FF06A
:100CE00074629A601FE07B68224A934203D11D4BD5
:100CF000154ADA6017E07B681F4A934203D1194B0B
:100D0000134ADA600FE07B681C4A934203D1154B0B
:100D1000114ADA6007E07B68194A934203D1114B0C
:100D20004FF03D52DA600C37BD465DF8047B7047EA
:100D300010600240006002402860024040600240B3
:100D400058600240706002403D0000208860024010
:100D5000400F0020A060024000003D20B86002402B
:100D60001064024000640240286402404064024073
:100D7000586402407064024088640240A0640240EB
:100D8000B864024080B485B000AF78603960002359
:100D9000FB607B681B68FB60FA68244B1340FB60B8
:100DA0003B681A683B68DB681A433B685B691A4317
:100DB0003B689B691A433B68DB691A433B681B6AC3
:100DC0001A433B685B6A1A433B689B6A1A433B6859
:100DD0005B6B1A433B689B6B1343FA681343FB60DE
:100DE0007B68FA681A607B685B69FB60FB6823F0CC
:100DF0000703FB603B68DA6A3B681B6B1343FA68C6
:100E00001343FB607B68FA685A613B681A697B6828
:100E10005A603B685A687B689A603B689A687B684E
:100E2000DA601437BD465DF8047B70473F801CF0E4
:100E300080B483B000AF78600B46FB70FB78002B6A
:100E400006D07B681B6843F001027B681A6005E0EE
:100E50007B681B6823F001027B681A600C37BD4673
:100E60005DF8047B704700BF80B483B000AF78604A
:100E70007B685B689BB218460C37BD465DF8047B07
:100E8000704700BF80B500AF0348002100F022F991
:100E90000346184680BD00BF0818000880B582B020
:100EA00000AF78603960174B174A07CA03C31A802E
:100EB0000233120C1A701348796800F015FA1148C1
:100EC00000F00AFC03461A460E4B13440F4A106802
:100ED00018600C48396800F007FA0A4800F0FCFB7B
:100EE00003461A46074B134409491A460B461B880A
:100EF00013800448002100F0EDF803461846083737
:100F0000BD4680BD28000020201800082C180008CD
:100F10003018000880B582B000AF0346FB71164B55
:100F2000164A07CA03C31A800233120C1A70FB79DF
:100F3000002B0CD0104800F0CFFB03461A460E4B96
:100F400013440F491A460B461B8813800BE00A48CE
:100F500000F0C2FB03461A46074B134409491A46E0
:100F60000B461B8813800448002100F0B3F80346A9
:100F700018460837BD4680BD2800002040180008EC
:100F80004C18000850180008B0B582B000AF786067
:100F90003960124A124B14461D460FCD0FC42B6800
:100FA00023600E48796800F09FF90C4800F094FB2C
:100FB00003461A46094B13440A4A1188927819804D
:100FC0009A700648396800F08FF90448002100F053
:100FD00081F8034618460837BD46B0BD28000020FA
:100FE000541800086818000880B584B000AF786015
:100FF000786800F071FB0346FB6007F10803F868AE
:1010000019460A2200F06EF90F4B104A07CA83E80E
:10101000070007F108030C48194600F065F90A4873
:10102000002100F057F8034683F00103DBB2002BE8
:1010300001D0002304E07868002100F04BF803465B
:1010400018461037BD4680BD280000206C180008E7
:1010500090B585B000AF78600023FB7323E01A4B96
:101060001B88B3F5006F02D1174B00221A80164B74
:101070001B881A46154B9B5CBB73FB7B7A68134439
:10108000BA7B1A70BB7B1846FFF7FCFB0E4B1B8824
:1010900001339AB20C4B1A80FB7B0133FB73FB7B51
:1010A000402B00D10AE0084B1B881C460848FFF77C
:1010B000DBFE0346C3F500639C42D0D1FB7B1846A0
:1010C0001437BD4690BD00BF20030020240300203C
:1010D0004064024080B590B000AF786039607868B5
:1010E00000F046F807F10C03184600F05BF807F132
:1010F0000C0318461A4900F027F90346002B01D1CA
:10110000012329E007F10C031846164900F01CF9E9
:101110000346002B01D101231EE007F10C03184602
:10112000114900F011F90346002B01D1002313E00F
:1011300007F10C0318460D4900F006F90346002B91
:1011400001D1002308E03B68002B04D007F10C021A
:101150003B6810469847C5E718464037BD4680BDF6
:101160008C1800089018000898180008A0180008AB
:1011700080B582B000AF786006E07B685A1C7A6068
:101180001B78184600F040F87B681B78002BF4D1E0
:101190000D2000F039F80A2000F036F80837BD4677
:1011A00080BD00BF80B584B000AF78600023FB73C2
:1011B0000023FB731DE000F043F80346BB73BB7BC9
:1011C0000A2B05D1FB7B7A68134400221A7018E0C1
:1011D000BB7B0D2B05D1FB7B7A68134400221A7070
:1011E00004E0FB7B7A681344BA7B1A70FB7B013303
:1011F000FB73FB7B312BDED97B68313300221A7005
:1012000000BF1037BD4680BD80B582B000AF034639
:10121000FB7100BF09488021FFF7FCF80346002B53
:10122000F8D0FB791846FFF72DFBFB799BB20348FA
:101230001946FFF7B9F80837BD4680BD00100140D8
:1012400080B582B000AF1848FFF70EFE0346FB8062
:1012500004E01548FFF708FE0346FB80134B1B888C
:101260001A46FB88C3F500639A42F2D00F4B1B88E5
:10127000B3F5006F02D10D4B00221A800B4B1B8877
:101280001A460B4B9B5C7B717B791846FFF7FAFA89
:10129000064B1B8801339AB2044B1A807B7918469F
:1012A0000837BD4680BD00BF4064024020030020D7
:1012B00024030020931E222B10D80A2A10B506D032
:1012C00000230C46194400F035FA204610BD0028D2
:1012D000F6DA2D230B7040420123F2E7002008705C
:1012E000704700BFFFF7E6BF830710B5044610D173
:1012F0000268A2F1013323EA020313F0803F08D110
:1013000050F8042FA2F1013323EA020313F0803FC7
:10131000F6D003781BB110F8013F002BFBD100F091
:101320007DF9204610BD00BF000000000000000055
:1013300000000000000000000000000000000000AD
:10134000A2EB0300704700BF02780B78012A28BF88
:101350009A42F5D16DE9044540EA0104CDE90267FE
:101360006FF0000C4FEA447212B380EA010414F0EB
:10137000070F6AD100F0070420F0070004F003050E
:1013800021F007014FEAC505F0E8042314F0040F2B
:10139000F1E804670CFA05F462EA040266EA04065E
:1013A0000AD063EA0403624667EA0407664603E07C
:1013B000F0E80423F1E8046782FA4CF582EA0604B7
:1013C000A4FA8CF46CBB83FA4CF583EA0705A5FA02
:1013D0008CF595B950E9022351E9026782FA4CF580
:1013E00082EA0604A4FA8CF483FA4CF583EA070532
:1013F000A5FA8CF52543DBD09CB92DBAB5FA85F456
:1014000024F0070427FA04F1DDE9026723FA04F364
:1014100003F0FF0001F0FF01FDE80445A0EB01002F
:10142000704724BAB4FA84F424F0070426FA04F1CD
:10143000DDE9026722FA04F202F0FF0001F0FF0189
:10144000FDE80445A0EB0100704714F0030F3CD108
:1014500010F0030428D150F8082B51F8083B82FA09
:101460004CF582EA0305A5FA8CF55DB950F8042C19
:1014700051F8043C82FA4CF582EA0305A5FA8CF592
:10148000002DE8D02DBAB5FA85F424F0070423FA2C
:1014900004F122FA04F202F0FF0001F0FF01FDE87E
:1014A0000445A0EB010070474FEAC40420F003009C
:1014B00050F8082B21F0030151F8083B0CFA04F412
:1014C00062EA040263EA0403C9E710F003041AD0D5
:1014D000A1EB040120F00300E40750F8042B06D030
:1014E0000FD28B785FFAA2F4E41A06D12BB1CB7835
:1014F0005FFAB2F4E41A00D11BB920465DF8104B34
:10150000704701F1040150F8042BCC0721F00301CE
:1015100051F8043B48D824D222F07F4482FA4CF59B
:1015200094EA1325A5FA8CF50AD165B951F8043B64
:1015300084EA0204B4EB036F0ED150F8042BEBE7FE
:101540004FEA132355E035F07F454DD10878FDE88B
:101550000445C0F1000070474FEA126203F0FF0338
:1015600047E002EA1C4482FA4CF594EA1345A5FAD6
:101570008CF50AD165B951F8043B84EA0204B4EB56
:10158000034F0CD150F8042BEBE74FEA134330E044
:1015900015EA1C4528D10B884FEA124229E04FEA90
:1015A000124203EA1C4324E002F0FF0482FA4CF5E5
:1015B00094EA1365A5FA8CF50AD165B951F8043B94
:1015C00084EA0204B4EB032F09D150F8042BEBE7B3
:1015D0004FEA13630DE015F0FF0F05D10B684FEADA
:1015E000122223F07F4304E04FF00000FDE80445A1
:1015F000704712BA1BBA82FA4CF482EA0304A4FAC6
:101600008CF5B5FA85F402FA04F203FA04F34FEA12
:101610001260FDE80445A0EB1360704780EA010208
:10162000844612F0030F4FD111F0030F32D14DF861
:10163000044D11F0040F51F8043B0BD0A3F101321B
:101640009A4312F0803F04BF4CF8043B51F8043B2E
:1016500016D100BF51F8044BA3F101329A4312F0A6
:10166000803FA4F101320BD14CF8043BA24312F0AD
:10167000803F04BF51F8043B4CF8044BEAD02346AA
:101680000CF8013B13F0FF0F4FEA3323F8D15DF85C
:10169000044B704711F0010F06D011F8012B0CF824
:1016A000012B002A08BF704711F0020FBFD031F89C
:1016B000022B12F0FF0F16BF2CF8022B8CF8002023
:1016C00012F47F4FB3D1704711F8012B0CF8012BA6
:1016D000002AF9D1704700BF20F0030110F0030089
:1016E000C0F1000051F8043B00F1040C4FEACC0CAF
:1016F0006FF000021CBF22FA0CF213434FF0010CF2
:101700004CEA0C2C4CEA0C4CA3EB0C0222EA030230
:1017100012EACC1204BF51F8043B0430F4D0C2F1F9
:10172000000102EA0102B2FA82F2C2F11F0200EBEA
:10173000D2007047F0B5DFF878E0164604460F4651
:10174000BEE80F008BB06D460FC5BEE80F000FC599
:101750009EE80300B31E45F8040B222B297022D803
:101760007D1E2846002200E01A46B4FBF6F10AABC3
:1017700006FB114423440C4613F8283C00F8013FB3
:10178000531C0029F0D1F954BB184AB1197815F847
:10179000010F29700134111B8C4203F80109F5DB9C
:1017A00038460BB0F0BD002038700BB0F0BD00BF64
:1017B000A818000855504331323438303233000015
:1017C00043484E414A524451000000007374617214
:1017D00074736D6172742E6E6C00000038300000FE
:1017E000474554202F20485454502F312E310D0A94
:1017F000486F73743A207374617274736D6172749C
:101800002E6E6C0D0A0D0A004154000041542B52FB
:101810005354000041542B43574C415000000000EA
:1018200041542B43574A41503D220000222C2200B4
:101830002200000041542B4357514150000000004A
:1018400041542B4349504D55583D00003100000094
:101850003000000041542B43495053544152543DF1
:1018600022544350222C2200222C000041542B43AE
:10187000495053454E443D002B43574C41503A2864
:10188000000000002C0000002C2200004F4B000044
:1018900053454E44204F4B004552524F52000000DA
:1018A0004641494C00000000303132333435363780
:1018B00038396162636465666768696A6B6C6D6E0E
:1018C0006F707172737475767778797A00000000A2
:1018D00000000000010203040102030406070809D6
:0400000508000000EF
:00000001FF
